{"abi":[{"type":"function","name":"buyNFT","inputs":[{"name":"nftContract","type":"address","internalType":"address"},{"name":"tokenId","type":"uint256","internalType":"uint256"}],"outputs":[],"stateMutability":"payable"},{"type":"function","name":"getListing","inputs":[{"name":"nftContract","type":"address","internalType":"address"},{"name":"tokenId","type":"uint256","internalType":"uint256"}],"outputs":[{"name":"","type":"tuple","internalType":"struct CatMarketplace.Listing","components":[{"name":"seller","type":"address","internalType":"address"},{"name":"price","type":"uint256","internalType":"uint256"},{"name":"active","type":"bool","internalType":"bool"}]}],"stateMutability":"view"},{"type":"function","name":"getUserListings","inputs":[{"name":"user","type":"address","internalType":"address"}],"outputs":[{"name":"","type":"uint256[]","internalType":"uint256[]"}],"stateMutability":"view"},{"type":"function","name":"listNFT","inputs":[{"name":"nftContract","type":"address","internalType":"address"},{"name":"tokenId","type":"uint256","internalType":"uint256"},{"name":"price","type":"uint256","internalType":"uint256"}],"outputs":[],"stateMutability":"nonpayable"},{"type":"function","name":"listings","inputs":[{"name":"","type":"address","internalType":"address"},{"name":"","type":"uint256","internalType":"uint256"}],"outputs":[{"name":"seller","type":"address","internalType":"address"},{"name":"price","type":"uint256","internalType":"uint256"},{"name":"active","type":"bool","internalType":"bool"}],"stateMutability":"view"},{"type":"function","name":"unlistNFT","inputs":[{"name":"nftContract","type":"address","internalType":"address"},{"name":"tokenId","type":"uint256","internalType":"uint256"}],"outputs":[],"stateMutability":"nonpayable"},{"type":"function","name":"userListedTokens","inputs":[{"name":"","type":"address","internalType":"address"},{"name":"","type":"uint256","internalType":"uint256"}],"outputs":[{"name":"","type":"uint256","internalType":"uint256"}],"stateMutability":"view"},{"type":"event","name":"Listed","inputs":[{"name":"nftContract","type":"address","indexed":true,"internalType":"address"},{"name":"tokenId","type":"uint256","indexed":true,"internalType":"uint256"},{"name":"seller","type":"address","indexed":false,"internalType":"address"},{"name":"price","type":"uint256","indexed":false,"internalType":"uint256"}],"anonymous":false},{"type":"event","name":"Sold","inputs":[{"name":"nftContract","type":"address","indexed":true,"internalType":"address"},{"name":"tokenId","type":"uint256","indexed":true,"internalType":"uint256"},{"name":"buyer","type":"address","indexed":false,"internalType":"address"},{"name":"seller","type":"address","indexed":false,"internalType":"address"},{"name":"price","type":"uint256","indexed":false,"internalType":"uint256"}],"anonymous":false},{"type":"event","name":"Unlisted","inputs":[{"name":"nftContract","type":"address","indexed":true,"internalType":"address"},{"name":"tokenId","type":"uint256","indexed":true,"internalType":"uint256"},{"name":"seller","type":"address","indexed":false,"internalType":"address"}],"anonymous":false}],"bytecode":{"object":"0x608060405234801561001057600080fd5b506112a9806100206000396000f3fe60806040526004361061006f5760003560e01c8063a82ba76f1161004e578063a82ba76f14610119578063ad05f1b414610135578063eb18a9d81461015e578063f5fb2b881461019b5761006f565b806207df30146100745780637fc27efd146100b357806388700d1c146100dc575b600080fd5b34801561008057600080fd5b5061009b60048036038101906100969190610c77565b6101d8565b6040516100aa93929190610cf0565b60405180910390f35b3480156100bf57600080fd5b506100da60048036038101906100d59190610c77565b61023c565b005b3480156100e857600080fd5b5061010360048036038101906100fe9190610c77565b610458565b6040516101109190610d96565b60405180910390f35b610133600480360381019061012e9190610c77565b61053d565b005b34801561014157600080fd5b5061015c60048036038101906101579190610db1565b61078b565b005b34801561016a57600080fd5b5061018560048036038101906101809190610e04565b610add565b6040516101929190610ee0565b60405180910390f35b3480156101a757600080fd5b506101c260048036038101906101bd9190610c77565b610b74565b6040516101cf9190610f02565b60405180910390f35b6000602052816000526040600020602052806000526040600020600091509150508060000160009054906101000a900473ffffffffffffffffffffffffffffffffffffffff16908060010154908060020160009054906101000a900460ff16905083565b60008060008473ffffffffffffffffffffffffffffffffffffffff1673ffffffffffffffffffffffffffffffffffffffff168152602001908152602001600020600083815260200190815260200160002090503373ffffffffffffffffffffffffffffffffffffffff168160000160009054906101000a900473ffffffffffffffffffffffffffffffffffffffff1673ffffffffffffffffffffffffffffffffffffffff1614610321576040517f08c379a000000000000000000000000000000000000000000000000000000000815260040161031890610f7a565b60405180910390fd5b8060020160009054906101000a900460ff16610372576040517f08c379a000000000000000000000000000000000000000000000000000000000815260040161036990610fe6565b60405180910390fd5b60008390508073ffffffffffffffffffffffffffffffffffffffff166323b872dd3033866040518463ffffffff1660e01b81526004016103b493929190611006565b600060405180830381600087803b1580156103ce57600080fd5b505af11580156103e2573d6000803e3d6000fd5b5050505060008260020160006101000a81548160ff021916908315150217905550828473ffffffffffffffffffffffffffffffffffffffff167f16756ce1b9151e0dbb76a33b47d51b5a4be6ccb03c506ed225e13c48ef0d4c533360405161044a919061103d565b60405180910390a350505050565b610460610ba5565b6000808473ffffffffffffffffffffffffffffffffffffffff1673ffffffffffffffffffffffffffffffffffffffff16815260200190815260200160002060008381526020019081526020016000206040518060600160405290816000820160009054906101000a900473ffffffffffffffffffffffffffffffffffffffff1673ffffffffffffffffffffffffffffffffffffffff1673ffffffffffffffffffffffffffffffffffffffff168152602001600182015481526020016002820160009054906101000a900460ff161515151581525050905092915050565b60008060008473ffffffffffffffffffffffffffffffffffffffff1673ffffffffffffffffffffffffffffffffffffffff168152602001908152602001600020600083815260200190815260200160002090508060020160009054906101000a900460ff166105e1576040517f08c379a00000000000000000000000000000000000000000000000000000000081526004016105d8906110a4565b60405180910390fd5b8060010154341015610628576040517f08c379a000000000000000000000000000000000000000000000000000000000815260040161061f90611110565b60405180910390fd5b600083905060008260000160009054906101000a900473ffffffffffffffffffffffffffffffffffffffff1690508173ffffffffffffffffffffffffffffffffffffffff166323b872dd3033876040518463ffffffff1660e01b815260040161069393929190611006565b600060405180830381600087803b1580156106ad57600080fd5b505af11580156106c1573d6000803e3d6000fd5b505050508073ffffffffffffffffffffffffffffffffffffffff166108fc84600101549081150290604051600060405180830381858888f1935050505015801561070f573d6000803e3d6000fd5b5060008360020160006101000a81548160ff021916908315150217905550838573ffffffffffffffffffffffffffffffffffffffff167fda87ba82c20701b6408a3d08484f0e5ece08f4d8400b15716a197e6e0c23c2613384876001015460405161077c93929190611006565b60405180910390a35050505050565b60008390503373ffffffffffffffffffffffffffffffffffffffff168173ffffffffffffffffffffffffffffffffffffffff16636352211e856040518263ffffffff1660e01b81526004016107e09190610f02565b602060405180830381865afa1580156107fd573d6000803e3d6000fd5b505050506040513d601f19601f820116820180604052508101906108219190611145565b73ffffffffffffffffffffffffffffffffffffffff1614610877576040517f08c379a000000000000000000000000000000000000000000000000000000000815260040161086e906111be565b60405180910390fd5b600082116108ba576040517f08c379a00000000000000000000000000000000000000000000000000000000081526004016108b19061122a565b60405180910390fd5b8073ffffffffffffffffffffffffffffffffffffffff166323b872dd3330866040518463ffffffff1660e01b81526004016108f793929190611006565b600060405180830381600087803b15801561091157600080fd5b505af1158015610925573d6000803e3d6000fd5b5050505060405180606001604052803373ffffffffffffffffffffffffffffffffffffffff168152602001838152602001600115158152506000808673ffffffffffffffffffffffffffffffffffffffff1673ffffffffffffffffffffffffffffffffffffffff168152602001908152602001600020600085815260200190815260200160002060008201518160000160006101000a81548173ffffffffffffffffffffffffffffffffffffffff021916908373ffffffffffffffffffffffffffffffffffffffff1602179055506020820151816001015560408201518160020160006101000a81548160ff021916908315150217905550905050600160003373ffffffffffffffffffffffffffffffffffffffff1673ffffffffffffffffffffffffffffffffffffffff168152602001908152602001600020839080600181540180825580915050600190039060005260206000200160009091909190915055828473ffffffffffffffffffffffffffffffffffffffff167f8b06cda60618abf2b2d07227f9dd63ec6349ca3269ce0eb18d49122a48362ad83385604051610acf92919061124a565b60405180910390a350505050565b6060600160008373ffffffffffffffffffffffffffffffffffffffff1673ffffffffffffffffffffffffffffffffffffffff168152602001908152602001600020805480602002602001604051908101604052809291908181526020018280548015610b6857602002820191906000526020600020905b815481526020019060010190808311610b54575b50505050509050919050565b60016020528160005260406000208181548110610b9057600080fd5b90600052602060002001600091509150505481565b6040518060600160405280600073ffffffffffffffffffffffffffffffffffffffff168152602001600081526020016000151581525090565b600080fd5b600073ffffffffffffffffffffffffffffffffffffffff82169050919050565b6000610c0e82610be3565b9050919050565b610c1e81610c03565b8114610c2957600080fd5b50565b600081359050610c3b81610c15565b92915050565b6000819050919050565b610c5481610c41565b8114610c5f57600080fd5b50565b600081359050610c7181610c4b565b92915050565b60008060408385031215610c8e57610c8d610bde565b5b6000610c9c85828601610c2c565b9250506020610cad85828601610c62565b9150509250929050565b610cc081610c03565b82525050565b610ccf81610c41565b82525050565b60008115159050919050565b610cea81610cd5565b82525050565b6000606082019050610d056000830186610cb7565b610d126020830185610cc6565b610d1f6040830184610ce1565b949350505050565b610d3081610c03565b82525050565b610d3f81610c41565b82525050565b610d4e81610cd5565b82525050565b606082016000820151610d6a6000850182610d27565b506020820151610d7d6020850182610d36565b506040820151610d906040850182610d45565b50505050565b6000606082019050610dab6000830184610d54565b92915050565b600080600060608486031215610dca57610dc9610bde565b5b6000610dd886828701610c2c565b9350506020610de986828701610c62565b9250506040610dfa86828701610c62565b9150509250925092565b600060208284031215610e1a57610e19610bde565b5b6000610e2884828501610c2c565b91505092915050565b600081519050919050565b600082825260208201905092915050565b6000819050602082019050919050565b6000610e698383610d36565b60208301905092915050565b6000602082019050919050565b6000610e8d82610e31565b610e978185610e3c565b9350610ea283610e4d565b8060005b83811015610ed3578151610eba8882610e5d565b9750610ec583610e75565b925050600181019050610ea6565b5085935050505092915050565b60006020820190508181036000830152610efa8184610e82565b905092915050565b6000602082019050610f176000830184610cc6565b92915050565b600082825260208201905092915050565b7f4e6f74207468652073656c6c6572000000000000000000000000000000000000600082015250565b6000610f64600e83610f1d565b9150610f6f82610f2e565b602082019050919050565b60006020820190508181036000830152610f9381610f57565b9050919050565b7f4e6f74206c697374656400000000000000000000000000000000000000000000600082015250565b6000610fd0600a83610f1d565b9150610fdb82610f9a565b602082019050919050565b60006020820190508181036000830152610fff81610fc3565b9050919050565b600060608201905061101b6000830186610cb7565b6110286020830185610cb7565b6110356040830184610cc6565b949350505050565b60006020820190506110526000830184610cb7565b92915050565b7f4e6f74206c697374656420666f722073616c6500000000000000000000000000600082015250565b600061108e601383610f1d565b915061109982611058565b602082019050919050565b600060208201905081810360008301526110bd81611081565b9050919050565b7f496e73756666696369656e74207061796d656e74000000000000000000000000600082015250565b60006110fa601483610f1d565b9150611105826110c4565b602082019050919050565b60006020820190508181036000830152611129816110ed565b9050919050565b60008151905061113f81610c15565b92915050565b60006020828403121561115b5761115a610bde565b5b600061116984828501611130565b91505092915050565b7f4e6f7420746865206f776e657200000000000000000000000000000000000000600082015250565b60006111a8600d83610f1d565b91506111b382611172565b602082019050919050565b600060208201905081810360008301526111d78161119b565b9050919050565b7f5072696365206d7573742062652067726561746572207468616e203000000000600082015250565b6000611214601c83610f1d565b915061121f826111de565b602082019050919050565b6000602082019050818103600083015261124381611207565b9050919050565b600060408201905061125f6000830185610cb7565b61126c6020830184610cc6565b939250505056fea2646970667358221220ab563fbabceea9d7b0151f92873e87b5606a91d9848e20a681cd071ceb70729964736f6c63430008130033","linkReferences":{}},"methodIdentifiers":{"buyNFT(address,uint256)":"a82ba76f","getListing(address,uint256)":"88700d1c","getUserListings(address)":"eb18a9d8","listNFT(address,uint256,uint256)":"ad05f1b4","listings(address,uint256)":"0007df30","unlistNFT(address,uint256)":"7fc27efd","userListedTokens(address,uint256)":"f5fb2b88"},"id":0}