{"abi":[{"type":"constructor","inputs":[],"stateMutability":"nonpayable"},{"type":"function","name":"approve","inputs":[{"name":"to","type":"address","internalType":"address"},{"name":"tokenId","type":"uint256","internalType":"uint256"}],"outputs":[],"stateMutability":"nonpayable"},{"type":"function","name":"balanceOf","inputs":[{"name":"owner","type":"address","internalType":"address"}],"outputs":[{"name":"","type":"uint256","internalType":"uint256"}],"stateMutability":"view"},{"type":"function","name":"catCreators","inputs":[{"name":"","type":"uint256","internalType":"uint256"}],"outputs":[{"name":"","type":"address","internalType":"address"}],"stateMutability":"view"},{"type":"function","name":"cats","inputs":[{"name":"","type":"uint256","internalType":"uint256"}],"outputs":[{"name":"name","type":"string","internalType":"string"},{"name":"imageURI","type":"string","internalType":"string"},{"name":"cuteness","type":"uint8","internalType":"uint8"},{"name":"color","type":"string","internalType":"string"},{"name":"price","type":"uint256","internalType":"uint256"}],"stateMutability":"view"},{"type":"function","name":"getApproved","inputs":[{"name":"tokenId","type":"uint256","internalType":"uint256"}],"outputs":[{"name":"","type":"address","internalType":"address"}],"stateMutability":"view"},{"type":"function","name":"getCat","inputs":[{"name":"tokenId","type":"uint256","internalType":"uint256"}],"outputs":[{"name":"","type":"tuple","internalType":"struct CatNFT.Cat","components":[{"name":"name","type":"string","internalType":"string"},{"name":"imageURI","type":"string","internalType":"string"},{"name":"cuteness","type":"uint8","internalType":"uint8"},{"name":"color","type":"string","internalType":"string"},{"name":"price","type":"uint256","internalType":"uint256"}]}],"stateMutability":"view"},{"type":"function","name":"getCatCreator","inputs":[{"name":"tokenId","type":"uint256","internalType":"uint256"}],"outputs":[{"name":"","type":"address","internalType":"address"}],"stateMutability":"view"},{"type":"function","name":"getTotalCats","inputs":[],"outputs":[{"name":"","type":"uint256","internalType":"uint256"}],"stateMutability":"view"},{"type":"function","name":"isApprovedForAll","inputs":[{"name":"owner","type":"address","internalType":"address"},{"name":"operator","type":"address","internalType":"address"}],"outputs":[{"name":"","type":"bool","internalType":"bool"}],"stateMutability":"view"},{"type":"function","name":"listCat","inputs":[{"name":"tokenId","type":"uint256","internalType":"uint256"},{"name":"price","type":"uint256","internalType":"uint256"}],"outputs":[],"stateMutability":"nonpayable"},{"type":"function","name":"mintCat","inputs":[{"name":"name","type":"string","internalType":"string"},{"name":"imageURI","type":"string","internalType":"string"},{"name":"cuteness","type":"uint8","internalType":"uint8"},{"name":"color","type":"string","internalType":"string"}],"outputs":[{"name":"","type":"uint256","internalType":"uint256"}],"stateMutability":"nonpayable"},{"type":"function","name":"name","inputs":[],"outputs":[{"name":"","type":"string","internalType":"string"}],"stateMutability":"view"},{"type":"function","name":"owner","inputs":[],"outputs":[{"name":"","type":"address","internalType":"address"}],"stateMutability":"view"},{"type":"function","name":"ownerOf","inputs":[{"name":"tokenId","type":"uint256","internalType":"uint256"}],"outputs":[{"name":"","type":"address","internalType":"address"}],"stateMutability":"view"},{"type":"function","name":"renounceOwnership","inputs":[],"outputs":[],"stateMutability":"nonpayable"},{"type":"function","name":"safeTransferFrom","inputs":[{"name":"from","type":"address","internalType":"address"},{"name":"to","type":"address","internalType":"address"},{"name":"tokenId","type":"uint256","internalType":"uint256"}],"outputs":[],"stateMutability":"nonpayable"},{"type":"function","name":"safeTransferFrom","inputs":[{"name":"from","type":"address","internalType":"address"},{"name":"to","type":"address","internalType":"address"},{"name":"tokenId","type":"uint256","internalType":"uint256"},{"name":"data","type":"bytes","internalType":"bytes"}],"outputs":[],"stateMutability":"nonpayable"},{"type":"function","name":"setApprovalForAll","inputs":[{"name":"operator","type":"address","internalType":"address"},{"name":"approved","type":"bool","internalType":"bool"}],"outputs":[],"stateMutability":"nonpayable"},{"type":"function","name":"supportsInterface","inputs":[{"name":"interfaceId","type":"bytes4","internalType":"bytes4"}],"outputs":[{"name":"","type":"bool","internalType":"bool"}],"stateMutability":"view"},{"type":"function","name":"symbol","inputs":[],"outputs":[{"name":"","type":"string","internalType":"string"}],"stateMutability":"view"},{"type":"function","name":"tokenURI","inputs":[{"name":"tokenId","type":"uint256","internalType":"uint256"}],"outputs":[{"name":"","type":"string","internalType":"string"}],"stateMutability":"view"},{"type":"function","name":"transferFrom","inputs":[{"name":"from","type":"address","internalType":"address"},{"name":"to","type":"address","internalType":"address"},{"name":"tokenId","type":"uint256","internalType":"uint256"}],"outputs":[],"stateMutability":"nonpayable"},{"type":"function","name":"transferOwnership","inputs":[{"name":"newOwner","type":"address","internalType":"address"}],"outputs":[],"stateMutability":"nonpayable"},{"type":"event","name":"Approval","inputs":[{"name":"owner","type":"address","indexed":true,"internalType":"address"},{"name":"approved","type":"address","indexed":true,"internalType":"address"},{"name":"tokenId","type":"uint256","indexed":true,"internalType":"uint256"}],"anonymous":false},{"type":"event","name":"ApprovalForAll","inputs":[{"name":"owner","type":"address","indexed":true,"internalType":"address"},{"name":"operator","type":"address","indexed":true,"internalType":"address"},{"name":"approved","type":"bool","indexed":false,"internalType":"bool"}],"anonymous":false},{"type":"event","name":"CatListed","inputs":[{"name":"tokenId","type":"uint256","indexed":false,"internalType":"uint256"},{"name":"price","type":"uint256","indexed":false,"internalType":"uint256"}],"anonymous":false},{"type":"event","name":"CatMinted","inputs":[{"name":"tokenId","type":"uint256","indexed":false,"internalType":"uint256"},{"name":"creator","type":"address","indexed":false,"internalType":"address"},{"name":"name","type":"string","indexed":false,"internalType":"string"},{"name":"cuteness","type":"uint8","indexed":false,"internalType":"uint8"}],"anonymous":false},{"type":"event","name":"OwnershipTransferred","inputs":[{"name":"previousOwner","type":"address","indexed":true,"internalType":"address"},{"name":"newOwner","type":"address","indexed":true,"internalType":"address"}],"anonymous":false},{"type":"event","name":"Transfer","inputs":[{"name":"from","type":"address","indexed":true,"internalType":"address"},{"name":"to","type":"address","indexed":true,"internalType":"address"},{"name":"tokenId","type":"uint256","indexed":true,"internalType":"uint256"}],"anonymous":false}],"bytecode":{"object":"0x60806040523480156200001157600080fd5b506040518060400160405280600681526020017f4361744e465400000000000000000000000000000000000000000000000000008152506040518060400160405280600381526020017f434154000000000000000000000000000000000000000000000000000000000081525081600090816200008f919062000412565b508060019081620000a1919062000412565b505050620000c4620000b8620000ca60201b60201c565b620000d260201b60201c565b620004f9565b600033905090565b6000600660009054906101000a900473ffffffffffffffffffffffffffffffffffffffff16905081600660006101000a81548173ffffffffffffffffffffffffffffffffffffffff021916908373ffffffffffffffffffffffffffffffffffffffff1602179055508173ffffffffffffffffffffffffffffffffffffffff168173ffffffffffffffffffffffffffffffffffffffff167f8be0079c531659141344cd1fd0a4f28419497f9722a3daafe3b4186f6b6457e060405160405180910390a35050565b600081519050919050565b7f4e487b7100000000000000000000000000000000000000000000000000000000600052604160045260246000fd5b7f4e487b7100000000000000000000000000000000000000000000000000000000600052602260045260246000fd5b600060028204905060018216806200021a57607f821691505b60208210810362000230576200022f620001d2565b5b50919050565b60008190508160005260206000209050919050565b60006020601f8301049050919050565b600082821b905092915050565b6000600883026200029a7fffffffffffffffffffffffffffffffffffffffffffffffffffffffffffffffff826200025b565b620002a686836200025b565b95508019841693508086168417925050509392505050565b6000819050919050565b6000819050919050565b6000620002f3620002ed620002e784620002be565b620002c8565b620002be565b9050919050565b6000819050919050565b6200030f83620002d2565b620003276200031e82620002fa565b84845462000268565b825550505050565b600090565b6200033e6200032f565b6200034b81848462000304565b505050565b5b8181101562000373576200036760008262000334565b60018101905062000351565b5050565b601f821115620003c2576200038c8162000236565b62000397846200024b565b81016020851015620003a7578190505b620003bf620003b6856200024b565b83018262000350565b50505b505050565b600082821c905092915050565b6000620003e760001984600802620003c7565b1980831691505092915050565b6000620004028383620003d4565b9150826002028217905092915050565b6200041d8262000198565b67ffffffffffffffff811115620004395762000438620001a3565b5b62000445825462000201565b6200045282828562000377565b600060209050601f8311600181146200048a576000841562000475578287015190505b620004818582620003f4565b865550620004f1565b601f1984166200049a8662000236565b60005b82811015620004c4578489015182556001820191506020850194506020810190506200049d565b86831015620004e45784890151620004e0601f891682620003d4565b8355505b6001600288020188555050505b505050505050565b61373780620005096000396000f3fe608060405234801561001057600080fd5b506004361061014d5760003560e01c8063715018a6116100c3578063a4f9ccc21161007c578063a4f9ccc2146103b0578063b88d4fde146103e0578063c6df962d146103fc578063c87b56dd14610430578063e985e9c514610460578063f2fde38b146104905761014d565b8063715018a6146103025780637e9c9d301461030c578063837d9ed91461033c5780638da5cb5b1461035857806395d89b4114610376578063a22cb465146103945761014d565b806323b872dd1161011557806323b872dd1461021c57806342842e0e146102385780634da2b48e146102545780635dc9b64b146102845780636352211e146102a257806370a08231146102d25761014d565b806301ffc9a71461015257806306fdde0314610182578063081812fc146101a0578063086697fc146101d0578063095ea7b314610200575b600080fd5b61016c6004803603810190610167919061227c565b6104ac565b60405161017991906122c4565b60405180910390f35b61018a61058e565b604051610197919061236f565b60405180910390f35b6101ba60048036038101906101b591906123c7565b610620565b6040516101c79190612435565b60405180910390f35b6101ea60048036038101906101e591906123c7565b610666565b6040516101f79190612435565b60405180910390f35b61021a6004803603810190610215919061247c565b610699565b005b610236600480360381019061023191906124bc565b6107b0565b005b610252600480360381019061024d91906124bc565b610810565b005b61026e600480360381019061026991906123c7565b610830565b60405161027b9190612608565b60405180910390f35b61028c610a3a565b6040516102999190612639565b60405180910390f35b6102bc60048036038101906102b791906123c7565b610a4b565b6040516102c99190612435565b60405180910390f35b6102ec60048036038101906102e79190612654565b610ad1565b6040516102f99190612639565b60405180910390f35b61030a610b88565b005b610326600480360381019061032191906123c7565b610b9c565b6040516103339190612435565b60405180910390f35b61035660048036038101906103519190612681565b610bd9565b005b610360610ca7565b60405161036d9190612435565b60405180910390f35b61037e610cd1565b60405161038b919061236f565b60405180910390f35b6103ae60048036038101906103a991906126ed565b610d63565b005b6103ca60048036038101906103c5919061288e565b610d79565b6040516103d79190612639565b60405180910390f35b6103fa60048036038101906103f591906129ea565b610eec565b005b610416600480360381019061041191906123c7565b610f4e565b604051610427959493929190612a7c565b60405180910390f35b61044a600480360381019061044591906123c7565b611129565b604051610457919061236f565b60405180910390f35b61047a60048036038101906104759190612ae4565b611191565b60405161048791906122c4565b60405180910390f35b6104aa60048036038101906104a59190612654565b611225565b005b60007f80ac58cd000000000000000000000000000000000000000000000000000000007bffffffffffffffffffffffffffffffffffffffffffffffffffffffff1916827bffffffffffffffffffffffffffffffffffffffffffffffffffffffff1916148061057757507f5b5e139f000000000000000000000000000000000000000000000000000000007bffffffffffffffffffffffffffffffffffffffffffffffffffffffff1916827bffffffffffffffffffffffffffffffffffffffffffffffffffffffff1916145b806105875750610586826112a8565b5b9050919050565b60606000805461059d90612b53565b80601f01602080910402602001604051908101604052809291908181526020018280546105c990612b53565b80156106165780601f106105eb57610100808354040283529160200191610616565b820191906000526020600020905b8154815290600101906020018083116105f957829003601f168201915b5050505050905090565b600061062b82611312565b6004600083815260200190815260200160002060009054906101000a900473ffffffffffffffffffffffffffffffffffffffff169050919050565b60096020528060005260406000206000915054906101000a900473ffffffffffffffffffffffffffffffffffffffff1681565b60006106a482610a4b565b90508073ffffffffffffffffffffffffffffffffffffffff168373ffffffffffffffffffffffffffffffffffffffff1603610714576040517f08c379a000000000000000000000000000000000000000000000000000000000815260040161070b90612bf6565b60405180910390fd5b8073ffffffffffffffffffffffffffffffffffffffff1661073361135d565b73ffffffffffffffffffffffffffffffffffffffff16148061076257506107618161075c61135d565b611191565b5b6107a1576040517f08c379a000000000000000000000000000000000000000000000000000000000815260040161079890612c88565b60405180910390fd5b6107ab8383611365565b505050565b6107c16107bb61135d565b8261141e565b610800576040517f08c379a00000000000000000000000000000000000000000000000000000000081526004016107f790612d1a565b60405180910390fd5b61080b8383836114b3565b505050565b61082b83838360405180602001604052806000815250610eec565b505050565b6108386121de565b600860008381526020019081526020016000206040518060a001604052908160008201805461086690612b53565b80601f016020809104026020016040519081016040528092919081815260200182805461089290612b53565b80156108df5780601f106108b4576101008083540402835291602001916108df565b820191906000526020600020905b8154815290600101906020018083116108c257829003601f168201915b505050505081526020016001820180546108f890612b53565b80601f016020809104026020016040519081016040528092919081815260200182805461092490612b53565b80156109715780601f1061094657610100808354040283529160200191610971565b820191906000526020600020905b81548152906001019060200180831161095457829003601f168201915b505050505081526020016002820160009054906101000a900460ff1660ff1660ff1681526020016003820180546109a790612b53565b80601f01602080910402602001604051908101604052809291908181526020018280546109d390612b53565b8015610a205780601f106109f557610100808354040283529160200191610a20565b820191906000526020600020905b815481529060010190602001808311610a0357829003601f168201915b505050505081526020016004820154815250509050919050565b6000610a4660076117ac565b905090565b600080610a57836117ba565b9050600073ffffffffffffffffffffffffffffffffffffffff168173ffffffffffffffffffffffffffffffffffffffff1603610ac8576040517f08c379a0000000000000000000000000000000000000000000000000000000008152600401610abf90612d86565b60405180910390fd5b80915050919050565b60008073ffffffffffffffffffffffffffffffffffffffff168273ffffffffffffffffffffffffffffffffffffffff1603610b41576040517f08c379a0000000000000000000000000000000000000000000000000000000008152600401610b3890612e18565b60405180910390fd5b600360008373ffffffffffffffffffffffffffffffffffffffff1673ffffffffffffffffffffffffffffffffffffffff168152602001908152602001600020549050919050565b610b906117f7565b610b9a6000611875565b565b60006009600083815260200190815260200160002060009054906101000a900473ffffffffffffffffffffffffffffffffffffffff169050919050565b3373ffffffffffffffffffffffffffffffffffffffff16610bf983610a4b565b73ffffffffffffffffffffffffffffffffffffffff1614610c4f576040517f08c379a0000000000000000000000000000000000000000000000000000000008152600401610c4690612e84565b60405180910390fd5b8060086000848152602001908152602001600020600401819055507fe3358cadd7c4187b3743b2e3a16a5c715e61ddd45be534cf10127d561a79965e8282604051610c9b929190612ea4565b60405180910390a15050565b6000600660009054906101000a900473ffffffffffffffffffffffffffffffffffffffff16905090565b606060018054610ce090612b53565b80601f0160208091040260200160405190810160405280929190818152602001828054610d0c90612b53565b8015610d595780601f10610d2e57610100808354040283529160200191610d59565b820191906000526020600020905b815481529060010190602001808311610d3c57829003601f168201915b5050505050905090565b610d75610d6e61135d565b838361193b565b5050565b6000610d856007611aa7565b6000610d9160076117ac565b9050610d9d3382611abd565b6040518060a001604052808781526020018681526020018560ff168152602001848152602001662386f26fc10000815250600860008381526020019081526020016000206000820151816000019081610df69190613079565b506020820151816001019081610e0c9190613079565b5060408201518160020160006101000a81548160ff021916908360ff1602179055506060820151816003019081610e439190613079565b5060808201518160040155905050336009600083815260200190815260200160002060006101000a81548173ffffffffffffffffffffffffffffffffffffffff021916908373ffffffffffffffffffffffffffffffffffffffff1602179055507fcd1fa56e14a2422cf02facb4ad4a758b00b4e94918381ce1ab76e5a8f9adcadd81338887604051610ed8949392919061314b565b60405180910390a180915050949350505050565b610efd610ef761135d565b8361141e565b610f3c576040517f08c379a0000000000000000000000000000000000000000000000000000000008152600401610f3390612d1a565b60405180910390fd5b610f4884848484611adb565b50505050565b6008602052806000526040600020600091509050806000018054610f7190612b53565b80601f0160208091040260200160405190810160405280929190818152602001828054610f9d90612b53565b8015610fea5780601f10610fbf57610100808354040283529160200191610fea565b820191906000526020600020905b815481529060010190602001808311610fcd57829003601f168201915b505050505090806001018054610fff90612b53565b80601f016020809104026020016040519081016040528092919081815260200182805461102b90612b53565b80156110785780601f1061104d57610100808354040283529160200191611078565b820191906000526020600020905b81548152906001019060200180831161105b57829003601f168201915b5050505050908060020160009054906101000a900460ff16908060030180546110a090612b53565b80601f01602080910402602001604051908101604052809291908181526020018280546110cc90612b53565b80156111195780601f106110ee57610100808354040283529160200191611119565b820191906000526020600020905b8154815290600101906020018083116110fc57829003601f168201915b5050505050908060040154905085565b606061113482611312565b600061113e611b37565b9050600081511161115e5760405180602001604052806000815250611189565b8061116884611b4e565b6040516020016111799291906131d3565b6040516020818303038152906040525b915050919050565b6000600560008473ffffffffffffffffffffffffffffffffffffffff1673ffffffffffffffffffffffffffffffffffffffff16815260200190815260200160002060008373ffffffffffffffffffffffffffffffffffffffff1673ffffffffffffffffffffffffffffffffffffffff16815260200190815260200160002060009054906101000a900460ff16905092915050565b61122d6117f7565b600073ffffffffffffffffffffffffffffffffffffffff168173ffffffffffffffffffffffffffffffffffffffff160361129c576040517f08c379a000000000000000000000000000000000000000000000000000000000815260040161129390613269565b60405180910390fd5b6112a581611875565b50565b60007f01ffc9a7000000000000000000000000000000000000000000000000000000007bffffffffffffffffffffffffffffffffffffffffffffffffffffffff1916827bffffffffffffffffffffffffffffffffffffffffffffffffffffffff1916149050919050565b61131b81611c1c565b61135a576040517f08c379a000000000000000000000000000000000000000000000000000000000815260040161135190612d86565b60405180910390fd5b50565b600033905090565b816004600083815260200190815260200160002060006101000a81548173ffffffffffffffffffffffffffffffffffffffff021916908373ffffffffffffffffffffffffffffffffffffffff160217905550808273ffffffffffffffffffffffffffffffffffffffff166113d883610a4b565b73ffffffffffffffffffffffffffffffffffffffff167f8c5be1e5ebec7d5bd14f71427d1e84f3dd0314c0f7b2291e5b200ac8c7c3b92560405160405180910390a45050565b60008061142a83610a4b565b90508073ffffffffffffffffffffffffffffffffffffffff168473ffffffffffffffffffffffffffffffffffffffff16148061146c575061146b8185611191565b5b806114aa57508373ffffffffffffffffffffffffffffffffffffffff1661149284610620565b73ffffffffffffffffffffffffffffffffffffffff16145b91505092915050565b8273ffffffffffffffffffffffffffffffffffffffff166114d382610a4b565b73ffffffffffffffffffffffffffffffffffffffff1614611529576040517f08c379a0000000000000000000000000000000000000000000000000000000008152600401611520906132fb565b60405180910390fd5b600073ffffffffffffffffffffffffffffffffffffffff168273ffffffffffffffffffffffffffffffffffffffff1603611598576040517f08c379a000000000000000000000000000000000000000000000000000000000815260040161158f9061338d565b60405180910390fd5b6115a58383836001611c5d565b8273ffffffffffffffffffffffffffffffffffffffff166115c582610a4b565b73ffffffffffffffffffffffffffffffffffffffff161461161b576040517f08c379a0000000000000000000000000000000000000000000000000000000008152600401611612906132fb565b60405180910390fd5b6004600082815260200190815260200160002060006101000a81549073ffffffffffffffffffffffffffffffffffffffff02191690556001600360008573ffffffffffffffffffffffffffffffffffffffff1673ffffffffffffffffffffffffffffffffffffffff168152602001908152602001600020600082825403925050819055506001600360008473ffffffffffffffffffffffffffffffffffffffff1673ffffffffffffffffffffffffffffffffffffffff16815260200190815260200160002060008282540192505081905550816002600083815260200190815260200160002060006101000a81548173ffffffffffffffffffffffffffffffffffffffff021916908373ffffffffffffffffffffffffffffffffffffffff160217905550808273ffffffffffffffffffffffffffffffffffffffff168473ffffffffffffffffffffffffffffffffffffffff167fddf252ad1be2c89b69c2b068fc378daa952ba7f163c4a11628f55a4df523b3ef60405160405180910390a46117a78383836001611c63565b505050565b600081600001549050919050565b60006002600083815260200190815260200160002060009054906101000a900473ffffffffffffffffffffffffffffffffffffffff169050919050565b6117ff61135d565b73ffffffffffffffffffffffffffffffffffffffff1661181d610ca7565b73ffffffffffffffffffffffffffffffffffffffff1614611873576040517f08c379a000000000000000000000000000000000000000000000000000000000815260040161186a906133f9565b60405180910390fd5b565b6000600660009054906101000a900473ffffffffffffffffffffffffffffffffffffffff16905081600660006101000a81548173ffffffffffffffffffffffffffffffffffffffff021916908373ffffffffffffffffffffffffffffffffffffffff1602179055508173ffffffffffffffffffffffffffffffffffffffff168173ffffffffffffffffffffffffffffffffffffffff167f8be0079c531659141344cd1fd0a4f28419497f9722a3daafe3b4186f6b6457e060405160405180910390a35050565b8173ffffffffffffffffffffffffffffffffffffffff168373ffffffffffffffffffffffffffffffffffffffff16036119a9576040517f08c379a00000000000000000000000000000000000000000000000000000000081526004016119a090613465565b60405180910390fd5b80600560008573ffffffffffffffffffffffffffffffffffffffff1673ffffffffffffffffffffffffffffffffffffffff16815260200190815260200160002060008473ffffffffffffffffffffffffffffffffffffffff1673ffffffffffffffffffffffffffffffffffffffff16815260200190815260200160002060006101000a81548160ff0219169083151502179055508173ffffffffffffffffffffffffffffffffffffffff168373ffffffffffffffffffffffffffffffffffffffff167f17307eab39ab6107e8899845ad3d59bd9653f200f220920489ca2b5937696c3183604051611a9a91906122c4565b60405180910390a3505050565b6001816000016000828254019250508190555050565b611ad7828260405180602001604052806000815250611c69565b5050565b611ae68484846114b3565b611af284848484611cc4565b611b31576040517f08c379a0000000000000000000000000000000000000000000000000000000008152600401611b28906134f7565b60405180910390fd5b50505050565b606060405180602001604052806000815250905090565b606060006001611b5d84611e4b565b01905060008167ffffffffffffffff811115611b7c57611b7b612737565b5b6040519080825280601f01601f191660200182016040528015611bae5781602001600182028036833780820191505090505b509050600082602001820190505b600115611c11578080600190039150507f3031323334353637383961626364656600000000000000000000000000000000600a86061a8153600a8581611c0557611c04613517565b5b04945060008503611bbc575b819350505050919050565b60008073ffffffffffffffffffffffffffffffffffffffff16611c3e836117ba565b73ffffffffffffffffffffffffffffffffffffffff1614159050919050565b50505050565b50505050565b611c738383611f9e565b611c806000848484611cc4565b611cbf576040517f08c379a0000000000000000000000000000000000000000000000000000000008152600401611cb6906134f7565b60405180910390fd5b505050565b6000611ce58473ffffffffffffffffffffffffffffffffffffffff166121bb565b15611e3e578373ffffffffffffffffffffffffffffffffffffffff1663150b7a02611d0e61135d565b8786866040518563ffffffff1660e01b8152600401611d30949392919061359b565b6020604051808303816000875af1925050508015611d6c57506040513d601f19601f82011682018060405250810190611d6991906135fc565b60015b611dee573d8060008114611d9c576040519150601f19603f3d011682016040523d82523d6000602084013e611da1565b606091505b506000815103611de6576040517f08c379a0000000000000000000000000000000000000000000000000000000008152600401611ddd906134f7565b60405180910390fd5b805181602001fd5b63150b7a0260e01b7bffffffffffffffffffffffffffffffffffffffffffffffffffffffff1916817bffffffffffffffffffffffffffffffffffffffffffffffffffffffff191614915050611e43565b600190505b949350505050565b600080600090507a184f03e93ff9f4daa797ed6e38ed64bf6a1f0100000000000000008310611ea9577a184f03e93ff9f4daa797ed6e38ed64bf6a1f0100000000000000008381611e9f57611e9e613517565b5b0492506040810190505b6d04ee2d6d415b85acef81000000008310611ee6576d04ee2d6d415b85acef81000000008381611edc57611edb613517565b5b0492506020810190505b662386f26fc100008310611f1557662386f26fc100008381611f0b57611f0a613517565b5b0492506010810190505b6305f5e1008310611f3e576305f5e1008381611f3457611f33613517565b5b0492506008810190505b6127108310611f63576127108381611f5957611f58613517565b5b0492506004810190505b60648310611f865760648381611f7c57611f7b613517565b5b0492506002810190505b600a8310611f95576001810190505b80915050919050565b600073ffffffffffffffffffffffffffffffffffffffff168273ffffffffffffffffffffffffffffffffffffffff160361200d576040517f08c379a000000000000000000000000000000000000000000000000000000000815260040161200490613675565b60405180910390fd5b61201681611c1c565b15612056576040517f08c379a000000000000000000000000000000000000000000000000000000000815260040161204d906136e1565b60405180910390fd5b612064600083836001611c5d565b61206d81611c1c565b156120ad576040517f08c379a00000000000000000000000000000000000000000000000000000000081526004016120a4906136e1565b60405180910390fd5b6001600360008473ffffffffffffffffffffffffffffffffffffffff1673ffffffffffffffffffffffffffffffffffffffff16815260200190815260200160002060008282540192505081905550816002600083815260200190815260200160002060006101000a81548173ffffffffffffffffffffffffffffffffffffffff021916908373ffffffffffffffffffffffffffffffffffffffff160217905550808273ffffffffffffffffffffffffffffffffffffffff16600073ffffffffffffffffffffffffffffffffffffffff167fddf252ad1be2c89b69c2b068fc378daa952ba7f163c4a11628f55a4df523b3ef60405160405180910390a46121b7600083836001611c63565b5050565b6000808273ffffffffffffffffffffffffffffffffffffffff163b119050919050565b6040518060a001604052806060815260200160608152602001600060ff16815260200160608152602001600081525090565b6000604051905090565b600080fd5b600080fd5b60007fffffffff0000000000000000000000000000000000000000000000000000000082169050919050565b61225981612224565b811461226457600080fd5b50565b60008135905061227681612250565b92915050565b6000602082840312156122925761229161221a565b5b60006122a084828501612267565b91505092915050565b60008115159050919050565b6122be816122a9565b82525050565b60006020820190506122d960008301846122b5565b92915050565b600081519050919050565b600082825260208201905092915050565b60005b838110156123195780820151818401526020810190506122fe565b60008484015250505050565b6000601f19601f8301169050919050565b6000612341826122df565b61234b81856122ea565b935061235b8185602086016122fb565b61236481612325565b840191505092915050565b600060208201905081810360008301526123898184612336565b905092915050565b6000819050919050565b6123a481612391565b81146123af57600080fd5b50565b6000813590506123c18161239b565b92915050565b6000602082840312156123dd576123dc61221a565b5b60006123eb848285016123b2565b91505092915050565b600073ffffffffffffffffffffffffffffffffffffffff82169050919050565b600061241f826123f4565b9050919050565b61242f81612414565b82525050565b600060208201905061244a6000830184612426565b92915050565b61245981612414565b811461246457600080fd5b50565b60008135905061247681612450565b92915050565b600080604083850312156124935761249261221a565b5b60006124a185828601612467565b92505060206124b2858286016123b2565b9150509250929050565b6000806000606084860312156124d5576124d461221a565b5b60006124e386828701612467565b93505060206124f486828701612467565b9250506040612505868287016123b2565b9150509250925092565b600082825260208201905092915050565b600061252b826122df565b612535818561250f565b93506125458185602086016122fb565b61254e81612325565b840191505092915050565b600060ff82169050919050565b61256f81612559565b82525050565b61257e81612391565b82525050565b600060a08301600083015184820360008601526125a18282612520565b915050602083015184820360208601526125bb8282612520565b91505060408301516125d06040860182612566565b50606083015184820360608601526125e88282612520565b91505060808301516125fd6080860182612575565b508091505092915050565b600060208201905081810360008301526126228184612584565b905092915050565b61263381612391565b82525050565b600060208201905061264e600083018461262a565b92915050565b60006020828403121561266a5761266961221a565b5b600061267884828501612467565b91505092915050565b600080604083850312156126985761269761221a565b5b60006126a6858286016123b2565b92505060206126b7858286016123b2565b9150509250929050565b6126ca816122a9565b81146126d557600080fd5b50565b6000813590506126e7816126c1565b92915050565b600080604083850312156127045761270361221a565b5b600061271285828601612467565b9250506020612723858286016126d8565b9150509250929050565b600080fd5b600080fd5b7f4e487b7100000000000000000000000000000000000000000000000000000000600052604160045260246000fd5b61276f82612325565b810181811067ffffffffffffffff8211171561278e5761278d612737565b5b80604052505050565b60006127a1612210565b90506127ad8282612766565b919050565b600067ffffffffffffffff8211156127cd576127cc612737565b5b6127d682612325565b9050602081019050919050565b82818337600083830152505050565b6000612805612800846127b2565b612797565b90508281526020810184848401111561282157612820612732565b5b61282c8482856127e3565b509392505050565b600082601f8301126128495761284861272d565b5b81356128598482602086016127f2565b91505092915050565b61286b81612559565b811461287657600080fd5b50565b60008135905061288881612862565b92915050565b600080600080608085870312156128a8576128a761221a565b5b600085013567ffffffffffffffff8111156128c6576128c561221f565b5b6128d287828801612834565b945050602085013567ffffffffffffffff8111156128f3576128f261221f565b5b6128ff87828801612834565b935050604061291087828801612879565b925050606085013567ffffffffffffffff8111156129315761293061221f565b5b61293d87828801612834565b91505092959194509250565b600067ffffffffffffffff82111561296457612963612737565b5b61296d82612325565b9050602081019050919050565b600061298d61298884612949565b612797565b9050828152602081018484840111156129a9576129a8612732565b5b6129b48482856127e3565b509392505050565b600082601f8301126129d1576129d061272d565b5b81356129e184826020860161297a565b91505092915050565b60008060008060808587031215612a0457612a0361221a565b5b6000612a1287828801612467565b9450506020612a2387828801612467565b9350506040612a34878288016123b2565b925050606085013567ffffffffffffffff811115612a5557612a5461221f565b5b612a61878288016129bc565b91505092959194509250565b612a7681612559565b82525050565b600060a0820190508181036000830152612a968188612336565b90508181036020830152612aaa8187612336565b9050612ab96040830186612a6d565b8181036060830152612acb8185612336565b9050612ada608083018461262a565b9695505050505050565b60008060408385031215612afb57612afa61221a565b5b6000612b0985828601612467565b9250506020612b1a85828601612467565b9150509250929050565b7f4e487b7100000000000000000000000000000000000000000000000000000000600052602260045260246000fd5b60006002820490506001821680612b6b57607f821691505b602082108103612b7e57612b7d612b24565b5b50919050565b7f4552433732313a20617070726f76616c20746f2063757272656e74206f776e6560008201527f7200000000000000000000000000000000000000000000000000000000000000602082015250565b6000612be06021836122ea565b9150612beb82612b84565b604082019050919050565b60006020820190508181036000830152612c0f81612bd3565b9050919050565b7f4552433732313a20617070726f76652063616c6c6572206973206e6f7420746f60008201527f6b656e206f776e6572206f7220617070726f76656420666f7220616c6c000000602082015250565b6000612c72603d836122ea565b9150612c7d82612c16565b604082019050919050565b60006020820190508181036000830152612ca181612c65565b9050919050565b7f4552433732313a2063616c6c6572206973206e6f7420746f6b656e206f776e6560008201527f72206f7220617070726f76656400000000000000000000000000000000000000602082015250565b6000612d04602d836122ea565b9150612d0f82612ca8565b604082019050919050565b60006020820190508181036000830152612d3381612cf7565b9050919050565b7f4552433732313a20696e76616c696420746f6b656e2049440000000000000000600082015250565b6000612d706018836122ea565b9150612d7b82612d3a565b602082019050919050565b60006020820190508181036000830152612d9f81612d63565b9050919050565b7f4552433732313a2061646472657373207a65726f206973206e6f74206120766160008201527f6c6964206f776e65720000000000000000000000000000000000000000000000602082015250565b6000612e026029836122ea565b9150612e0d82612da6565b604082019050919050565b60006020820190508181036000830152612e3181612df5565b9050919050565b7f4e6f7420746865206f776e657200000000000000000000000000000000000000600082015250565b6000612e6e600d836122ea565b9150612e7982612e38565b602082019050919050565b60006020820190508181036000830152612e9d81612e61565b9050919050565b6000604082019050612eb9600083018561262a565b612ec6602083018461262a565b9392505050565b60008190508160005260206000209050919050565b60006020601f8301049050919050565b600082821b905092915050565b600060088302612f2f7fffffffffffffffffffffffffffffffffffffffffffffffffffffffffffffffff82612ef2565b612f398683612ef2565b95508019841693508086168417925050509392505050565b6000819050919050565b6000612f76612f71612f6c84612391565b612f51565b612391565b9050919050565b6000819050919050565b612f9083612f5b565b612fa4612f9c82612f7d565b848454612eff565b825550505050565b600090565b612fb9612fac565b612fc4818484612f87565b505050565b5b81811015612fe857612fdd600082612fb1565b600181019050612fca565b5050565b601f82111561302d57612ffe81612ecd565b61300784612ee2565b81016020851015613016578190505b61302a61302285612ee2565b830182612fc9565b50505b505050565b600082821c905092915050565b600061305060001984600802613032565b1980831691505092915050565b6000613069838361303f565b9150826002028217905092915050565b613082826122df565b67ffffffffffffffff81111561309b5761309a612737565b5b6130a58254612b53565b6130b0828285612fec565b600060209050601f8311600181146130e357600084156130d1578287015190505b6130db858261305d565b865550613143565b601f1984166130f186612ecd565b60005b82811015613119578489015182556001820191506020850194506020810190506130f4565b868310156131365784890151613132601f89168261303f565b8355505b6001600288020188555050505b505050505050565b6000608082019050613160600083018761262a565b61316d6020830186612426565b818103604083015261317f8185612336565b905061318e6060830184612a6d565b95945050505050565b600081905092915050565b60006131ad826122df565b6131b78185613197565b93506131c78185602086016122fb565b80840191505092915050565b60006131df82856131a2565b91506131eb82846131a2565b91508190509392505050565b7f4f776e61626c653a206e6577206f776e657220697320746865207a65726f206160008201527f6464726573730000000000000000000000000000000000000000000000000000602082015250565b60006132536026836122ea565b915061325e826131f7565b604082019050919050565b6000602082019050818103600083015261328281613246565b9050919050565b7f4552433732313a207472616e736665722066726f6d20696e636f72726563742060008201527f6f776e6572000000000000000000000000000000000000000000000000000000602082015250565b60006132e56025836122ea565b91506132f082613289565b604082019050919050565b60006020820190508181036000830152613314816132d8565b9050919050565b7f4552433732313a207472616e7366657220746f20746865207a65726f2061646460008201527f7265737300000000000000000000000000000000000000000000000000000000602082015250565b60006133776024836122ea565b91506133828261331b565b604082019050919050565b600060208201905081810360008301526133a68161336a565b9050919050565b7f4f776e61626c653a2063616c6c6572206973206e6f7420746865206f776e6572600082015250565b60006133e36020836122ea565b91506133ee826133ad565b602082019050919050565b60006020820190508181036000830152613412816133d6565b9050919050565b7f4552433732313a20617070726f766520746f2063616c6c657200000000000000600082015250565b600061344f6019836122ea565b915061345a82613419565b602082019050919050565b6000602082019050818103600083015261347e81613442565b9050919050565b7f4552433732313a207472616e7366657220746f206e6f6e20455243373231526560008201527f63656976657220696d706c656d656e7465720000000000000000000000000000602082015250565b60006134e16032836122ea565b91506134ec82613485565b604082019050919050565b60006020820190508181036000830152613510816134d4565b9050919050565b7f4e487b7100000000000000000000000000000000000000000000000000000000600052601260045260246000fd5b600081519050919050565b600082825260208201905092915050565b600061356d82613546565b6135778185613551565b93506135878185602086016122fb565b61359081612325565b840191505092915050565b60006080820190506135b06000830187612426565b6135bd6020830186612426565b6135ca604083018561262a565b81810360608301526135dc8184613562565b905095945050505050565b6000815190506135f681612250565b92915050565b6000602082840312156136125761361161221a565b5b6000613620848285016135e7565b91505092915050565b7f4552433732313a206d696e7420746f20746865207a65726f2061646472657373600082015250565b600061365f6020836122ea565b915061366a82613629565b602082019050919050565b6000602082019050818103600083015261368e81613652565b9050919050565b7f4552433732313a20746f6b656e20616c7265616479206d696e74656400000000600082015250565b60006136cb601c836122ea565b91506136d682613695565b602082019050919050565b600060208201905081810360008301526136fa816136be565b905091905056fea2646970667358221220441dfa47899b3060acd361dbc3e9e3bf04ff0add7ccdd698372c3a30ea504a9464736f6c63430008130033","linkReferences":{}},"methodIdentifiers":{"approve(address,uint256)":"095ea7b3","balanceOf(address)":"70a08231","catCreators(uint256)":"086697fc","cats(uint256)":"c6df962d","getApproved(uint256)":"081812fc","getCat(uint256)":"4da2b48e","getCatCreator(uint256)":"7e9c9d30","getTotalCats()":"5dc9b64b","isApprovedForAll(address,address)":"e985e9c5","listCat(uint256,uint256)":"837d9ed9","mintCat(string,string,uint8,string)":"a4f9ccc2","name()":"06fdde03","owner()":"8da5cb5b","ownerOf(uint256)":"6352211e","renounceOwnership()":"715018a6","safeTransferFrom(address,address,uint256)":"42842e0e","safeTransferFrom(address,address,uint256,bytes)":"b88d4fde","setApprovalForAll(address,bool)":"a22cb465","supportsInterface(bytes4)":"01ffc9a7","symbol()":"95d89b41","tokenURI(uint256)":"c87b56dd","transferFrom(address,address,uint256)":"23b872dd","transferOwnership(address)":"f2fde38b"},"id":0}