{"abi":[{"type":"constructor","inputs":[],"stateMutability":"nonpayable"},{"type":"function","name":"approve","inputs":[{"name":"to","type":"address","internalType":"address"},{"name":"tokenId","type":"uint256","internalType":"uint256"}],"outputs":[],"stateMutability":"nonpayable"},{"type":"function","name":"balanceOf","inputs":[{"name":"owner","type":"address","internalType":"address"}],"outputs":[{"name":"","type":"uint256","internalType":"uint256"}],"stateMutability":"view"},{"type":"function","name":"catCreators","inputs":[{"name":"","type":"uint256","internalType":"uint256"}],"outputs":[{"name":"","type":"address","internalType":"address"}],"stateMutability":"view"},{"type":"function","name":"cats","inputs":[{"name":"","type":"uint256","internalType":"uint256"}],"outputs":[{"name":"name","type":"string","internalType":"string"},{"name":"imageURI","type":"string","internalType":"string"},{"name":"cuteness","type":"uint8","internalType":"uint8"},{"name":"color","type":"string","internalType":"string"},{"name":"price","type":"uint256","internalType":"uint256"}],"stateMutability":"view"},{"type":"function","name":"getApproved","inputs":[{"name":"tokenId","type":"uint256","internalType":"uint256"}],"outputs":[{"name":"","type":"address","internalType":"address"}],"stateMutability":"view"},{"type":"function","name":"getCat","inputs":[{"name":"tokenId","type":"uint256","internalType":"uint256"}],"outputs":[{"name":"","type":"tuple","internalType":"struct CatNFT.Cat","components":[{"name":"name","type":"string","internalType":"string"},{"name":"imageURI","type":"string","internalType":"string"},{"name":"cuteness","type":"uint8","internalType":"uint8"},{"name":"color","type":"string","internalType":"string"},{"name":"price","type":"uint256","internalType":"uint256"}]}],"stateMutability":"view"},{"type":"function","name":"getCatCreator","inputs":[{"name":"tokenId","type":"uint256","internalType":"uint256"}],"outputs":[{"name":"","type":"address","internalType":"address"}],"stateMutability":"view"},{"type":"function","name":"getTotalCats","inputs":[],"outputs":[{"name":"","type":"uint256","internalType":"uint256"}],"stateMutability":"view"},{"type":"function","name":"isApprovedForAll","inputs":[{"name":"owner","type":"address","internalType":"address"},{"name":"operator","type":"address","internalType":"address"}],"outputs":[{"name":"","type":"bool","internalType":"bool"}],"stateMutability":"view"},{"type":"function","name":"listCat","inputs":[{"name":"tokenId","type":"uint256","internalType":"uint256"},{"name":"price","type":"uint256","internalType":"uint256"}],"outputs":[],"stateMutability":"nonpayable"},{"type":"function","name":"mintCat","inputs":[{"name":"name","type":"string","internalType":"string"},{"name":"imageURI","type":"string","internalType":"string"},{"name":"cuteness","type":"uint8","internalType":"uint8"},{"name":"color","type":"string","internalType":"string"}],"outputs":[{"name":"","type":"uint256","internalType":"uint256"}],"stateMutability":"nonpayable"},{"type":"function","name":"name","inputs":[],"outputs":[{"name":"","type":"string","internalType":"string"}],"stateMutability":"view"},{"type":"function","name":"owner","inputs":[],"outputs":[{"name":"","type":"address","internalType":"address"}],"stateMutability":"view"},{"type":"function","name":"ownerOf","inputs":[{"name":"tokenId","type":"uint256","internalType":"uint256"}],"outputs":[{"name":"","type":"address","internalType":"address"}],"stateMutability":"view"},{"type":"function","name":"renounceOwnership","inputs":[],"outputs":[],"stateMutability":"nonpayable"},{"type":"function","name":"safeTransferFrom","inputs":[{"name":"from","type":"address","internalType":"address"},{"name":"to","type":"address","internalType":"address"},{"name":"tokenId","type":"uint256","internalType":"uint256"}],"outputs":[],"stateMutability":"nonpayable"},{"type":"function","name":"safeTransferFrom","inputs":[{"name":"from","type":"address","internalType":"address"},{"name":"to","type":"address","internalType":"address"},{"name":"tokenId","type":"uint256","internalType":"uint256"},{"name":"data","type":"bytes","internalType":"bytes"}],"outputs":[],"stateMutability":"nonpayable"},{"type":"function","name":"setApprovalForAll","inputs":[{"name":"operator","type":"address","internalType":"address"},{"name":"approved","type":"bool","internalType":"bool"}],"outputs":[],"stateMutability":"nonpayable"},{"type":"function","name":"supportsInterface","inputs":[{"name":"interfaceId","type":"bytes4","internalType":"bytes4"}],"outputs":[{"name":"","type":"bool","internalType":"bool"}],"stateMutability":"view"},{"type":"function","name":"symbol","inputs":[],"outputs":[{"name":"","type":"string","internalType":"string"}],"stateMutability":"view"},{"type":"function","name":"tokenURI","inputs":[{"name":"tokenId","type":"uint256","internalType":"uint256"}],"outputs":[{"name":"","type":"string","internalType":"string"}],"stateMutability":"view"},{"type":"function","name":"transferFrom","inputs":[{"name":"from","type":"address","internalType":"address"},{"name":"to","type":"address","internalType":"address"},{"name":"tokenId","type":"uint256","internalType":"uint256"}],"outputs":[],"stateMutability":"nonpayable"},{"type":"function","name":"transferOwnership","inputs":[{"name":"newOwner","type":"address","internalType":"address"}],"outputs":[],"stateMutability":"nonpayable"},{"type":"event","name":"Approval","inputs":[{"name":"owner","type":"address","indexed":true,"internalType":"address"},{"name":"approved","type":"address","indexed":true,"internalType":"address"},{"name":"tokenId","type":"uint256","indexed":true,"internalType":"uint256"}],"anonymous":false},{"type":"event","name":"ApprovalForAll","inputs":[{"name":"owner","type":"address","indexed":true,"internalType":"address"},{"name":"operator","type":"address","indexed":true,"internalType":"address"},{"name":"approved","type":"bool","indexed":false,"internalType":"bool"}],"anonymous":false},{"type":"event","name":"CatListed","inputs":[{"name":"tokenId","type":"uint256","indexed":false,"internalType":"uint256"},{"name":"price","type":"uint256","indexed":false,"internalType":"uint256"}],"anonymous":false},{"type":"event","name":"CatMinted","inputs":[{"name":"tokenId","type":"uint256","indexed":false,"internalType":"uint256"},{"name":"creator","type":"address","indexed":false,"internalType":"address"},{"name":"name","type":"string","indexed":false,"internalType":"string"},{"name":"cuteness","type":"uint8","indexed":false,"internalType":"uint8"}],"anonymous":false},{"type":"event","name":"OwnershipTransferred","inputs":[{"name":"previousOwner","type":"address","indexed":true,"internalType":"address"},{"name":"newOwner","type":"address","indexed":true,"internalType":"address"}],"anonymous":false},{"type":"event","name":"Transfer","inputs":[{"name":"from","type":"address","indexed":true,"internalType":"address"},{"name":"to","type":"address","indexed":true,"internalType":"address"},{"name":"tokenId","type":"uint256","indexed":true,"internalType":"uint256"}],"anonymous":false}],"bytecode":{"object":"0x608060405234801561000f575f5ffd5b506040518060400160405280600681526020017f4361744e465400000000000000000000000000000000000000000000000000008152506040518060400160405280600381526020017f4341540000000000000000000000000000000000000000000000000000000000815250815f908161008a91906103d6565b50806001908161009a91906103d6565b5050506100b96100ae6100be60201b60201c565b6100c560201b60201c565b6104a5565b5f33905090565b5f60065f9054906101000a900473ffffffffffffffffffffffffffffffffffffffff1690508160065f6101000a81548173ffffffffffffffffffffffffffffffffffffffff021916908373ffffffffffffffffffffffffffffffffffffffff1602179055508173ffffffffffffffffffffffffffffffffffffffff168173ffffffffffffffffffffffffffffffffffffffff167f8be0079c531659141344cd1fd0a4f28419497f9722a3daafe3b4186f6b6457e060405160405180910390a35050565b5f81519050919050565b7f4e487b71000000000000000000000000000000000000000000000000000000005f52604160045260245ffd5b7f4e487b71000000000000000000000000000000000000000000000000000000005f52602260045260245ffd5b5f600282049050600182168061020357607f821691505b602082108103610216576102156101bf565b5b50919050565b5f819050815f5260205f209050919050565b5f6020601f8301049050919050565b5f82821b905092915050565b5f600883026102787fffffffffffffffffffffffffffffffffffffffffffffffffffffffffffffffff8261023d565b610282868361023d565b95508019841693508086168417925050509392505050565b5f819050919050565b5f819050919050565b5f6102c66102c16102bc8461029a565b6102a3565b61029a565b9050919050565b5f819050919050565b6102df836102ac565b6102f36102eb826102cd565b848454610249565b825550505050565b5f5f905090565b61030a6102fb565b6103158184846102d6565b505050565b5f5b8281101561033b576103305f828401610302565b60018101905061031c565b505050565b601f82111561038e578282111561038d5761035a8161021c565b6103638361022e565b61036c8561022e565b6020861015610379575f90505b8083016103888284038261031a565b505050505b5b505050565b5f82821c905092915050565b5f6103ae5f1984600802610393565b1980831691505092915050565b5f6103c6838361039f565b9150826002028217905092915050565b6103df82610188565b67ffffffffffffffff8111156103f8576103f7610192565b5b61040282546101ec565b61040d828285610340565b5f60209050601f83116001811461043e575f841561042c578287015190505b61043685826103bb565b86555061049d565b601f19841661044c8661021c565b5f5b828110156104735784890151825560018201915060208501945060208101905061044e565b86831015610490578489015161048c601f89168261039f565b8355505b6001600288020188555050505b505050505050565b6135fd806104b25f395ff3fe608060405234801561000f575f5ffd5b506004361061014b575f3560e01c8063715018a6116100c1578063a4f9ccc21161007a578063a4f9ccc2146103ad578063b88d4fde146103dd578063c6df962d146103f9578063c87b56dd1461042d578063e985e9c51461045d578063f2fde38b1461048d5761014b565b8063715018a6146102ff5780637e9c9d3014610309578063837d9ed9146103395780638da5cb5b1461035557806395d89b4114610373578063a22cb465146103915761014b565b806323b872dd1161011357806323b872dd1461021957806342842e0e146102355780634da2b48e146102515780635dc9b64b146102815780636352211e1461029f57806370a08231146102cf5761014b565b806301ffc9a71461014f57806306fdde031461017f578063081812fc1461019d578063086697fc146101cd578063095ea7b3146101fd575b5f5ffd5b610169600480360381019061016491906121ed565b6104a9565b6040516101769190612232565b60405180910390f35b61018761058a565b60405161019491906122bb565b60405180910390f35b6101b760048036038101906101b2919061230e565b610619565b6040516101c49190612378565b60405180910390f35b6101e760048036038101906101e2919061230e565b61065b565b6040516101f49190612378565b60405180910390f35b610217600480360381019061021291906123bb565b61068b565b005b610233600480360381019061022e91906123f9565b6107a1565b005b61024f600480360381019061024a91906123f9565b610801565b005b61026b6004803603810190610266919061230e565b610820565b604051610278919061253c565b60405180910390f35b610289610a20565b604051610296919061256b565b60405180910390f35b6102b960048036038101906102b4919061230e565b610a30565b6040516102c69190612378565b60405180910390f35b6102e960048036038101906102e49190612584565b610ab4565b6040516102f6919061256b565b60405180910390f35b610307610b68565b005b610323600480360381019061031e919061230e565b610b7b565b6040516103309190612378565b60405180910390f35b610353600480360381019061034e91906125af565b610bb4565b005b61035d610c80565b60405161036a9190612378565b60405180910390f35b61037b610ca8565b60405161038891906122bb565b60405180910390f35b6103ab60048036038101906103a69190612617565b610d38565b005b6103c760048036038101906103c291906127ab565b610d4e565b6040516103d4919061256b565b60405180910390f35b6103f760048036038101906103f29190612901565b610eb7565b005b610413600480360381019061040e919061230e565b610f19565b604051610424959493929190612990565b60405180910390f35b6104476004803603810190610442919061230e565b6110e9565b60405161045491906122bb565b60405180910390f35b610477600480360381019061047291906129f6565b61114e565b6040516104849190612232565b60405180910390f35b6104a760048036038101906104a29190612584565b6111dc565b005b5f7f80ac58cd000000000000000000000000000000000000000000000000000000007bffffffffffffffffffffffffffffffffffffffffffffffffffffffff1916827bffffffffffffffffffffffffffffffffffffffffffffffffffffffff1916148061057357507f5b5e139f000000000000000000000000000000000000000000000000000000007bffffffffffffffffffffffffffffffffffffffffffffffffffffffff1916827bffffffffffffffffffffffffffffffffffffffffffffffffffffffff1916145b8061058357506105828261125e565b5b9050919050565b60605f805461059890612a61565b80601f01602080910402602001604051908101604052809291908181526020018280546105c490612a61565b801561060f5780601f106105e65761010080835404028352916020019161060f565b820191905f5260205f20905b8154815290600101906020018083116105f257829003601f168201915b5050505050905090565b5f610623826112c7565b60045f8381526020019081526020015f205f9054906101000a900473ffffffffffffffffffffffffffffffffffffffff169050919050565b6009602052805f5260405f205f915054906101000a900473ffffffffffffffffffffffffffffffffffffffff1681565b5f61069582610a30565b90508073ffffffffffffffffffffffffffffffffffffffff168373ffffffffffffffffffffffffffffffffffffffff1603610705576040517f08c379a00000000000000000000000000000000000000000000000000000000081526004016106fc90612b01565b60405180910390fd5b8073ffffffffffffffffffffffffffffffffffffffff16610724611312565b73ffffffffffffffffffffffffffffffffffffffff16148061075357506107528161074d611312565b61114e565b5b610792576040517f08c379a000000000000000000000000000000000000000000000000000000000815260040161078990612b8f565b60405180910390fd5b61079c8383611319565b505050565b6107b26107ac611312565b826113cf565b6107f1576040517f08c379a00000000000000000000000000000000000000000000000000000000081526004016107e890612c1d565b60405180910390fd5b6107fc838383611463565b505050565b61081b83838360405180602001604052805f815250610eb7565b505050565b610828612157565b60085f8381526020019081526020015f206040518060a00160405290815f8201805461085390612a61565b80601f016020809104026020016040519081016040528092919081815260200182805461087f90612a61565b80156108ca5780601f106108a1576101008083540402835291602001916108ca565b820191905f5260205f20905b8154815290600101906020018083116108ad57829003601f168201915b505050505081526020016001820180546108e390612a61565b80601f016020809104026020016040519081016040528092919081815260200182805461090f90612a61565b801561095a5780601f106109315761010080835404028352916020019161095a565b820191905f5260205f20905b81548152906001019060200180831161093d57829003601f168201915b50505050508152602001600282015f9054906101000a900460ff1660ff1660ff16815260200160038201805461098f90612a61565b80601f01602080910402602001604051908101604052809291908181526020018280546109bb90612a61565b8015610a065780601f106109dd57610100808354040283529160200191610a06565b820191905f5260205f20905b8154815290600101906020018083116109e957829003601f168201915b505050505081526020016004820154815250509050919050565b5f610a2b600761174f565b905090565b5f5f610a3b8361175b565b90505f73ffffffffffffffffffffffffffffffffffffffff168173ffffffffffffffffffffffffffffffffffffffff1603610aab576040517f08c379a0000000000000000000000000000000000000000000000000000000008152600401610aa290612c85565b60405180910390fd5b80915050919050565b5f5f73ffffffffffffffffffffffffffffffffffffffff168273ffffffffffffffffffffffffffffffffffffffff1603610b23576040517f08c379a0000000000000000000000000000000000000000000000000000000008152600401610b1a90612d13565b60405180910390fd5b60035f8373ffffffffffffffffffffffffffffffffffffffff1673ffffffffffffffffffffffffffffffffffffffff1681526020019081526020015f20549050919050565b610b70611794565b610b795f611812565b565b5f60095f8381526020019081526020015f205f9054906101000a900473ffffffffffffffffffffffffffffffffffffffff169050919050565b3373ffffffffffffffffffffffffffffffffffffffff16610bd483610a30565b73ffffffffffffffffffffffffffffffffffffffff1614610c2a576040517f08c379a0000000000000000000000000000000000000000000000000000000008152600401610c2190612d7b565b60405180910390fd5b8060085f8481526020019081526020015f20600401819055507fe3358cadd7c4187b3743b2e3a16a5c715e61ddd45be534cf10127d561a79965e8282604051610c74929190612d99565b60405180910390a15050565b5f60065f9054906101000a900473ffffffffffffffffffffffffffffffffffffffff16905090565b606060018054610cb790612a61565b80601f0160208091040260200160405190810160405280929190818152602001828054610ce390612a61565b8015610d2e5780601f10610d0557610100808354040283529160200191610d2e565b820191905f5260205f20905b815481529060010190602001808311610d1157829003601f168201915b5050505050905090565b610d4a610d43611312565b83836118d5565b5050565b5f610d596007611a3c565b5f610d64600761174f565b9050610d703382611a50565b6040518060a001604052808781526020018681526020018560ff168152602001848152602001662386f26fc1000081525060085f8381526020019081526020015f205f820151815f019081610dc59190612f71565b506020820151816001019081610ddb9190612f71565b506040820151816002015f6101000a81548160ff021916908360ff1602179055506060820151816003019081610e119190612f71565b50608082015181600401559050503360095f8381526020019081526020015f205f6101000a81548173ffffffffffffffffffffffffffffffffffffffff021916908373ffffffffffffffffffffffffffffffffffffffff1602179055507fcd1fa56e14a2422cf02facb4ad4a758b00b4e94918381ce1ab76e5a8f9adcadd81338887604051610ea39493929190613040565b60405180910390a180915050949350505050565b610ec8610ec2611312565b836113cf565b610f07576040517f08c379a0000000000000000000000000000000000000000000000000000000008152600401610efe90612c1d565b60405180910390fd5b610f1384848484611a6d565b50505050565b6008602052805f5260405f205f91509050805f018054610f3890612a61565b80601f0160208091040260200160405190810160405280929190818152602001828054610f6490612a61565b8015610faf5780601f10610f8657610100808354040283529160200191610faf565b820191905f5260205f20905b815481529060010190602001808311610f9257829003601f168201915b505050505090806001018054610fc490612a61565b80601f0160208091040260200160405190810160405280929190818152602001828054610ff090612a61565b801561103b5780601f106110125761010080835404028352916020019161103b565b820191905f5260205f20905b81548152906001019060200180831161101e57829003601f168201915b505050505090806002015f9054906101000a900460ff169080600301805461106290612a61565b80601f016020809104026020016040519081016040528092919081815260200182805461108e90612a61565b80156110d95780601f106110b0576101008083540402835291602001916110d9565b820191905f5260205f20905b8154815290600101906020018083116110bc57829003601f168201915b5050505050908060040154905085565b60606110f4826112c7565b5f6110fd611ac9565b90505f81511161111b5760405180602001604052805f815250611146565b8061112584611adf565b6040516020016111369291906130c4565b6040516020818303038152906040525b915050919050565b5f60055f8473ffffffffffffffffffffffffffffffffffffffff1673ffffffffffffffffffffffffffffffffffffffff1681526020019081526020015f205f8373ffffffffffffffffffffffffffffffffffffffff1673ffffffffffffffffffffffffffffffffffffffff1681526020019081526020015f205f9054906101000a900460ff16905092915050565b6111e4611794565b5f73ffffffffffffffffffffffffffffffffffffffff168173ffffffffffffffffffffffffffffffffffffffff1603611252576040517f08c379a000000000000000000000000000000000000000000000000000000000815260040161124990613157565b60405180910390fd5b61125b81611812565b50565b5f7f01ffc9a7000000000000000000000000000000000000000000000000000000007bffffffffffffffffffffffffffffffffffffffffffffffffffffffff1916827bffffffffffffffffffffffffffffffffffffffffffffffffffffffff1916149050919050565b6112d081611ba9565b61130f576040517f08c379a000000000000000000000000000000000000000000000000000000000815260040161130690612c85565b60405180910390fd5b50565b5f33905090565b8160045f8381526020019081526020015f205f6101000a81548173ffffffffffffffffffffffffffffffffffffffff021916908373ffffffffffffffffffffffffffffffffffffffff160217905550808273ffffffffffffffffffffffffffffffffffffffff1661138983610a30565b73ffffffffffffffffffffffffffffffffffffffff167f8c5be1e5ebec7d5bd14f71427d1e84f3dd0314c0f7b2291e5b200ac8c7c3b92560405160405180910390a45050565b5f5f6113da83610a30565b90508073ffffffffffffffffffffffffffffffffffffffff168473ffffffffffffffffffffffffffffffffffffffff16148061141c575061141b818561114e565b5b8061145a57508373ffffffffffffffffffffffffffffffffffffffff1661144284610619565b73ffffffffffffffffffffffffffffffffffffffff16145b91505092915050565b8273ffffffffffffffffffffffffffffffffffffffff1661148382610a30565b73ffffffffffffffffffffffffffffffffffffffff16146114d9576040517f08c379a00000000000000000000000000000000000000000000000000000000081526004016114d0906131e5565b60405180910390fd5b5f73ffffffffffffffffffffffffffffffffffffffff168273ffffffffffffffffffffffffffffffffffffffff1603611547576040517f08c379a000000000000000000000000000000000000000000000000000000000815260040161153e90613273565b60405180910390fd5b6115548383836001611be9565b8273ffffffffffffffffffffffffffffffffffffffff1661157482610a30565b73ffffffffffffffffffffffffffffffffffffffff16146115ca576040517f08c379a00000000000000000000000000000000000000000000000000000000081526004016115c1906131e5565b60405180910390fd5b60045f8281526020019081526020015f205f6101000a81549073ffffffffffffffffffffffffffffffffffffffff0219169055600160035f8573ffffffffffffffffffffffffffffffffffffffff1673ffffffffffffffffffffffffffffffffffffffff1681526020019081526020015f205f8282540392505081905550600160035f8473ffffffffffffffffffffffffffffffffffffffff1673ffffffffffffffffffffffffffffffffffffffff1681526020019081526020015f205f82825401925050819055508160025f8381526020019081526020015f205f6101000a81548173ffffffffffffffffffffffffffffffffffffffff021916908373ffffffffffffffffffffffffffffffffffffffff160217905550808273ffffffffffffffffffffffffffffffffffffffff168473ffffffffffffffffffffffffffffffffffffffff167fddf252ad1be2c89b69c2b068fc378daa952ba7f163c4a11628f55a4df523b3ef60405160405180910390a461174a8383836001611bef565b505050565b5f815f01549050919050565b5f60025f8381526020019081526020015f205f9054906101000a900473ffffffffffffffffffffffffffffffffffffffff169050919050565b61179c611312565b73ffffffffffffffffffffffffffffffffffffffff166117ba610c80565b73ffffffffffffffffffffffffffffffffffffffff1614611810576040517f08c379a0000000000000000000000000000000000000000000000000000000008152600401611807906132db565b60405180910390fd5b565b5f60065f9054906101000a900473ffffffffffffffffffffffffffffffffffffffff1690508160065f6101000a81548173ffffffffffffffffffffffffffffffffffffffff021916908373ffffffffffffffffffffffffffffffffffffffff1602179055508173ffffffffffffffffffffffffffffffffffffffff168173ffffffffffffffffffffffffffffffffffffffff167f8be0079c531659141344cd1fd0a4f28419497f9722a3daafe3b4186f6b6457e060405160405180910390a35050565b8173ffffffffffffffffffffffffffffffffffffffff168373ffffffffffffffffffffffffffffffffffffffff1603611943576040517f08c379a000000000000000000000000000000000000000000000000000000000815260040161193a90613343565b60405180910390fd5b8060055f8573ffffffffffffffffffffffffffffffffffffffff1673ffffffffffffffffffffffffffffffffffffffff1681526020019081526020015f205f8473ffffffffffffffffffffffffffffffffffffffff1673ffffffffffffffffffffffffffffffffffffffff1681526020019081526020015f205f6101000a81548160ff0219169083151502179055508173ffffffffffffffffffffffffffffffffffffffff168373ffffffffffffffffffffffffffffffffffffffff167f17307eab39ab6107e8899845ad3d59bd9653f200f220920489ca2b5937696c3183604051611a2f9190612232565b60405180910390a3505050565b6001815f015f828254019250508190555050565b611a69828260405180602001604052805f815250611bf5565b5050565b611a78848484611463565b611a8484848484611c4f565b611ac3576040517f08c379a0000000000000000000000000000000000000000000000000000000008152600401611aba906133d1565b60405180910390fd5b50505050565b606060405180602001604052805f815250905090565b60605f6001611aed84611dd1565b0190505f8167ffffffffffffffff811115611b0b57611b0a61265d565b5b6040519080825280601f01601f191660200182016040528015611b3d5781602001600182028036833780820191505090505b5090505f82602001820190505b600115611b9e578080600190039150507f3031323334353637383961626364656600000000000000000000000000000000600a86061a8153600a8581611b9357611b926133ef565b5b0494505f8503611b4a575b819350505050919050565b5f5f73ffffffffffffffffffffffffffffffffffffffff16611bca8361175b565b73ffffffffffffffffffffffffffffffffffffffff1614159050919050565b50505050565b50505050565b611bff8383611f22565b611c0b5f848484611c4f565b611c4a576040517f08c379a0000000000000000000000000000000000000000000000000000000008152600401611c41906133d1565b60405180910390fd5b505050565b5f611c6f8473ffffffffffffffffffffffffffffffffffffffff16612135565b15611dc4578373ffffffffffffffffffffffffffffffffffffffff1663150b7a02611c98611312565b8786866040518563ffffffff1660e01b8152600401611cba949392919061346e565b6020604051808303815f875af1925050508015611cf557506040513d601f19601f82011682018060405250810190611cf291906134cc565b60015b611d74573d805f8114611d23576040519150601f19603f3d011682016040523d82523d5f602084013e611d28565b606091505b505f815103611d6c576040517f08c379a0000000000000000000000000000000000000000000000000000000008152600401611d63906133d1565b60405180910390fd5b805181602001fd5b63150b7a0260e01b7bffffffffffffffffffffffffffffffffffffffffffffffffffffffff1916817bffffffffffffffffffffffffffffffffffffffffffffffffffffffff191614915050611dc9565b600190505b949350505050565b5f5f5f90507a184f03e93ff9f4daa797ed6e38ed64bf6a1f0100000000000000008310611e2d577a184f03e93ff9f4daa797ed6e38ed64bf6a1f0100000000000000008381611e2357611e226133ef565b5b0492506040810190505b6d04ee2d6d415b85acef81000000008310611e6a576d04ee2d6d415b85acef81000000008381611e6057611e5f6133ef565b5b0492506020810190505b662386f26fc100008310611e9957662386f26fc100008381611e8f57611e8e6133ef565b5b0492506010810190505b6305f5e1008310611ec2576305f5e1008381611eb857611eb76133ef565b5b0492506008810190505b6127108310611ee7576127108381611edd57611edc6133ef565b5b0492506004810190505b60648310611f0a5760648381611f0057611eff6133ef565b5b0492506002810190505b600a8310611f19576001810190505b80915050919050565b5f73ffffffffffffffffffffffffffffffffffffffff168273ffffffffffffffffffffffffffffffffffffffff1603611f90576040517f08c379a0000000000000000000000000000000000000000000000000000000008152600401611f8790613541565b60405180910390fd5b611f9981611ba9565b15611fd9576040517f08c379a0000000000000000000000000000000000000000000000000000000008152600401611fd0906135a9565b60405180910390fd5b611fe65f83836001611be9565b611fef81611ba9565b1561202f576040517f08c379a0000000000000000000000000000000000000000000000000000000008152600401612026906135a9565b60405180910390fd5b600160035f8473ffffffffffffffffffffffffffffffffffffffff1673ffffffffffffffffffffffffffffffffffffffff1681526020019081526020015f205f82825401925050819055508160025f8381526020019081526020015f205f6101000a81548173ffffffffffffffffffffffffffffffffffffffff021916908373ffffffffffffffffffffffffffffffffffffffff160217905550808273ffffffffffffffffffffffffffffffffffffffff165f73ffffffffffffffffffffffffffffffffffffffff167fddf252ad1be2c89b69c2b068fc378daa952ba7f163c4a11628f55a4df523b3ef60405160405180910390a46121315f83836001611bef565b5050565b5f5f8273ffffffffffffffffffffffffffffffffffffffff163b119050919050565b6040518060a0016040528060608152602001606081526020015f60ff168152602001606081526020015f81525090565b5f604051905090565b5f5ffd5b5f5ffd5b5f7fffffffff0000000000000000000000000000000000000000000000000000000082169050919050565b6121cc81612198565b81146121d6575f5ffd5b50565b5f813590506121e7816121c3565b92915050565b5f6020828403121561220257612201612190565b5b5f61220f848285016121d9565b91505092915050565b5f8115159050919050565b61222c81612218565b82525050565b5f6020820190506122455f830184612223565b92915050565b5f81519050919050565b5f82825260208201905092915050565b8281835e5f83830152505050565b5f601f19601f8301169050919050565b5f61228d8261224b565b6122978185612255565b93506122a7818560208601612265565b6122b081612273565b840191505092915050565b5f6020820190508181035f8301526122d38184612283565b905092915050565b5f819050919050565b6122ed816122db565b81146122f7575f5ffd5b50565b5f81359050612308816122e4565b92915050565b5f6020828403121561232357612322612190565b5b5f612330848285016122fa565b91505092915050565b5f73ffffffffffffffffffffffffffffffffffffffff82169050919050565b5f61236282612339565b9050919050565b61237281612358565b82525050565b5f60208201905061238b5f830184612369565b92915050565b61239a81612358565b81146123a4575f5ffd5b50565b5f813590506123b581612391565b92915050565b5f5f604083850312156123d1576123d0612190565b5b5f6123de858286016123a7565b92505060206123ef858286016122fa565b9150509250929050565b5f5f5f606084860312156124105761240f612190565b5b5f61241d868287016123a7565b935050602061242e868287016123a7565b925050604061243f868287016122fa565b9150509250925092565b5f82825260208201905092915050565b5f6124638261224b565b61246d8185612449565b935061247d818560208601612265565b61248681612273565b840191505092915050565b5f60ff82169050919050565b6124a681612491565b82525050565b6124b5816122db565b82525050565b5f60a083015f8301518482035f8601526124d58282612459565b915050602083015184820360208601526124ef8282612459565b9150506040830151612504604086018261249d565b506060830151848203606086015261251c8282612459565b915050608083015161253160808601826124ac565b508091505092915050565b5f6020820190508181035f83015261255481846124bb565b905092915050565b612565816122db565b82525050565b5f60208201905061257e5f83018461255c565b92915050565b5f6020828403121561259957612598612190565b5b5f6125a6848285016123a7565b91505092915050565b5f5f604083850312156125c5576125c4612190565b5b5f6125d2858286016122fa565b92505060206125e3858286016122fa565b9150509250929050565b6125f681612218565b8114612600575f5ffd5b50565b5f81359050612611816125ed565b92915050565b5f5f6040838503121561262d5761262c612190565b5b5f61263a858286016123a7565b925050602061264b85828601612603565b9150509250929050565b5f5ffd5b5f5ffd5b7f4e487b71000000000000000000000000000000000000000000000000000000005f52604160045260245ffd5b61269382612273565b810181811067ffffffffffffffff821117156126b2576126b161265d565b5b80604052505050565b5f6126c4612187565b90506126d0828261268a565b919050565b5f67ffffffffffffffff8211156126ef576126ee61265d565b5b6126f882612273565b9050602081019050919050565b828183375f83830152505050565b5f612725612720846126d5565b6126bb565b90508281526020810184848401111561274157612740612659565b5b61274c848285612705565b509392505050565b5f82601f83011261276857612767612655565b5b8135612778848260208601612713565b91505092915050565b61278a81612491565b8114612794575f5ffd5b50565b5f813590506127a581612781565b92915050565b5f5f5f5f608085870312156127c3576127c2612190565b5b5f85013567ffffffffffffffff8111156127e0576127df612194565b5b6127ec87828801612754565b945050602085013567ffffffffffffffff81111561280d5761280c612194565b5b61281987828801612754565b935050604061282a87828801612797565b925050606085013567ffffffffffffffff81111561284b5761284a612194565b5b61285787828801612754565b91505092959194509250565b5f67ffffffffffffffff82111561287d5761287c61265d565b5b61288682612273565b9050602081019050919050565b5f6128a56128a084612863565b6126bb565b9050828152602081018484840111156128c1576128c0612659565b5b6128cc848285612705565b509392505050565b5f82601f8301126128e8576128e7612655565b5b81356128f8848260208601612893565b91505092915050565b5f5f5f5f6080858703121561291957612918612190565b5b5f612926878288016123a7565b9450506020612937878288016123a7565b9350506040612948878288016122fa565b925050606085013567ffffffffffffffff81111561296957612968612194565b5b612975878288016128d4565b91505092959194509250565b61298a81612491565b82525050565b5f60a0820190508181035f8301526129a88188612283565b905081810360208301526129bc8187612283565b90506129cb6040830186612981565b81810360608301526129dd8185612283565b90506129ec608083018461255c565b9695505050505050565b5f5f60408385031215612a0c57612a0b612190565b5b5f612a19858286016123a7565b9250506020612a2a858286016123a7565b9150509250929050565b7f4e487b71000000000000000000000000000000000000000000000000000000005f52602260045260245ffd5b5f6002820490506001821680612a7857607f821691505b602082108103612a8b57612a8a612a34565b5b50919050565b7f4552433732313a20617070726f76616c20746f2063757272656e74206f776e655f8201527f7200000000000000000000000000000000000000000000000000000000000000602082015250565b5f612aeb602183612255565b9150612af682612a91565b604082019050919050565b5f6020820190508181035f830152612b1881612adf565b9050919050565b7f4552433732313a20617070726f76652063616c6c6572206973206e6f7420746f5f8201527f6b656e206f776e6572206f7220617070726f76656420666f7220616c6c000000602082015250565b5f612b79603d83612255565b9150612b8482612b1f565b604082019050919050565b5f6020820190508181035f830152612ba681612b6d565b9050919050565b7f4552433732313a2063616c6c6572206973206e6f7420746f6b656e206f776e655f8201527f72206f7220617070726f76656400000000000000000000000000000000000000602082015250565b5f612c07602d83612255565b9150612c1282612bad565b604082019050919050565b5f6020820190508181035f830152612c3481612bfb565b9050919050565b7f4552433732313a20696e76616c696420746f6b656e20494400000000000000005f82015250565b5f612c6f601883612255565b9150612c7a82612c3b565b602082019050919050565b5f6020820190508181035f830152612c9c81612c63565b9050919050565b7f4552433732313a2061646472657373207a65726f206973206e6f7420612076615f8201527f6c6964206f776e65720000000000000000000000000000000000000000000000602082015250565b5f612cfd602983612255565b9150612d0882612ca3565b604082019050919050565b5f6020820190508181035f830152612d2a81612cf1565b9050919050565b7f4e6f7420746865206f776e6572000000000000000000000000000000000000005f82015250565b5f612d65600d83612255565b9150612d7082612d31565b602082019050919050565b5f6020820190508181035f830152612d9281612d59565b9050919050565b5f604082019050612dac5f83018561255c565b612db9602083018461255c565b9392505050565b5f819050815f5260205f209050919050565b5f6020601f8301049050919050565b5f82821b905092915050565b5f60088302612e1c7fffffffffffffffffffffffffffffffffffffffffffffffffffffffffffffffff82612de1565b612e268683612de1565b95508019841693508086168417925050509392505050565b5f819050919050565b5f612e61612e5c612e57846122db565b612e3e565b6122db565b9050919050565b5f819050919050565b612e7a83612e47565b612e8e612e8682612e68565b848454612ded565b825550505050565b5f5f905090565b612ea5612e96565b612eb0818484612e71565b505050565b5f5b82811015612ed657612ecb5f828401612e9d565b600181019050612eb7565b505050565b601f821115612f295782821115612f2857612ef581612dc0565b612efe83612dd2565b612f0785612dd2565b6020861015612f14575f90505b808301612f2382840382612eb5565b505050505b5b505050565b5f82821c905092915050565b5f612f495f1984600802612f2e565b1980831691505092915050565b5f612f618383612f3a565b9150826002028217905092915050565b612f7a8261224b565b67ffffffffffffffff811115612f9357612f9261265d565b5b612f9d8254612a61565b612fa8828285612edb565b5f60209050601f831160018114612fd9575f8415612fc7578287015190505b612fd18582612f56565b865550613038565b601f198416612fe786612dc0565b5f5b8281101561300e57848901518255600182019150602085019450602081019050612fe9565b8683101561302b5784890151613027601f891682612f3a565b8355505b6001600288020188555050505b505050505050565b5f6080820190506130535f83018761255c565b6130606020830186612369565b81810360408301526130728185612283565b90506130816060830184612981565b95945050505050565b5f81905092915050565b5f61309e8261224b565b6130a8818561308a565b93506130b8818560208601612265565b80840191505092915050565b5f6130cf8285613094565b91506130db8284613094565b91508190509392505050565b7f4f776e61626c653a206e6577206f776e657220697320746865207a65726f20615f8201527f6464726573730000000000000000000000000000000000000000000000000000602082015250565b5f613141602683612255565b915061314c826130e7565b604082019050919050565b5f6020820190508181035f83015261316e81613135565b9050919050565b7f4552433732313a207472616e736665722066726f6d20696e636f7272656374205f8201527f6f776e6572000000000000000000000000000000000000000000000000000000602082015250565b5f6131cf602583612255565b91506131da82613175565b604082019050919050565b5f6020820190508181035f8301526131fc816131c3565b9050919050565b7f4552433732313a207472616e7366657220746f20746865207a65726f206164645f8201527f7265737300000000000000000000000000000000000000000000000000000000602082015250565b5f61325d602483612255565b915061326882613203565b604082019050919050565b5f6020820190508181035f83015261328a81613251565b9050919050565b7f4f776e61626c653a2063616c6c6572206973206e6f7420746865206f776e65725f82015250565b5f6132c5602083612255565b91506132d082613291565b602082019050919050565b5f6020820190508181035f8301526132f2816132b9565b9050919050565b7f4552433732313a20617070726f766520746f2063616c6c6572000000000000005f82015250565b5f61332d601983612255565b9150613338826132f9565b602082019050919050565b5f6020820190508181035f83015261335a81613321565b9050919050565b7f4552433732313a207472616e7366657220746f206e6f6e2045524337323152655f8201527f63656976657220696d706c656d656e7465720000000000000000000000000000602082015250565b5f6133bb603283612255565b91506133c682613361565b604082019050919050565b5f6020820190508181035f8301526133e8816133af565b9050919050565b7f4e487b71000000000000000000000000000000000000000000000000000000005f52601260045260245ffd5b5f81519050919050565b5f82825260208201905092915050565b5f6134408261341c565b61344a8185613426565b935061345a818560208601612265565b61346381612273565b840191505092915050565b5f6080820190506134815f830187612369565b61348e6020830186612369565b61349b604083018561255c565b81810360608301526134ad8184613436565b905095945050505050565b5f815190506134c6816121c3565b92915050565b5f602082840312156134e1576134e0612190565b5b5f6134ee848285016134b8565b91505092915050565b7f4552433732313a206d696e7420746f20746865207a65726f20616464726573735f82015250565b5f61352b602083612255565b9150613536826134f7565b602082019050919050565b5f6020820190508181035f8301526135588161351f565b9050919050565b7f4552433732313a20746f6b656e20616c7265616479206d696e746564000000005f82015250565b5f613593601c83612255565b915061359e8261355f565b602082019050919050565b5f6020820190508181035f8301526135c081613587565b905091905056fea26469706673582212206334523a8d1c64bd5fc69c3b0000b37caf932a2fc02c66589d068c56b2be70a664736f6c63430008210033","linkReferences":{}},"methodIdentifiers":{"approve(address,uint256)":"095ea7b3","balanceOf(address)":"70a08231","catCreators(uint256)":"086697fc","cats(uint256)":"c6df962d","getApproved(uint256)":"081812fc","getCat(uint256)":"4da2b48e","getCatCreator(uint256)":"7e9c9d30","getTotalCats()":"5dc9b64b","isApprovedForAll(address,address)":"e985e9c5","listCat(uint256,uint256)":"837d9ed9","mintCat(string,string,uint8,string)":"a4f9ccc2","name()":"06fdde03","owner()":"8da5cb5b","ownerOf(uint256)":"6352211e","renounceOwnership()":"715018a6","safeTransferFrom(address,address,uint256)":"42842e0e","safeTransferFrom(address,address,uint256,bytes)":"b88d4fde","setApprovalForAll(address,bool)":"a22cb465","supportsInterface(bytes4)":"01ffc9a7","symbol()":"95d89b41","tokenURI(uint256)":"c87b56dd","transferFrom(address,address,uint256)":"23b872dd","transferOwnership(address)":"f2fde38b"},"id":1}